{
  "contractName": "Token",
  "abi": [
    {
      "inputs": [],
      "stateMutability": "nonpayable",
      "type": "constructor"
    },
    {
      "anonymous": false,
      "inputs": [
        {
          "indexed": true,
          "internalType": "address",
          "name": "owner",
          "type": "address"
        },
        {
          "indexed": true,
          "internalType": "address",
          "name": "spender",
          "type": "address"
        },
        {
          "indexed": false,
          "internalType": "uint256",
          "name": "value",
          "type": "uint256"
        }
      ],
      "name": "Approval",
      "type": "event"
    },
    {
      "anonymous": false,
      "inputs": [
        {
          "indexed": true,
          "internalType": "address",
          "name": "from",
          "type": "address"
        },
        {
          "indexed": true,
          "internalType": "address",
          "name": "to",
          "type": "address"
        },
        {
          "indexed": false,
          "internalType": "uint256",
          "name": "value",
          "type": "uint256"
        }
      ],
      "name": "Transfer",
      "type": "event"
    },
    {
      "inputs": [
        {
          "internalType": "address",
          "name": "",
          "type": "address"
        },
        {
          "internalType": "address",
          "name": "",
          "type": "address"
        }
      ],
      "name": "allowance",
      "outputs": [
        {
          "internalType": "uint256",
          "name": "",
          "type": "uint256"
        }
      ],
      "stateMutability": "view",
      "type": "function"
    },
    {
      "inputs": [
        {
          "internalType": "address",
          "name": "",
          "type": "address"
        }
      ],
      "name": "balances",
      "outputs": [
        {
          "internalType": "uint256",
          "name": "",
          "type": "uint256"
        }
      ],
      "stateMutability": "view",
      "type": "function"
    },
    {
      "inputs": [],
      "name": "decimals",
      "outputs": [
        {
          "internalType": "uint256",
          "name": "",
          "type": "uint256"
        }
      ],
      "stateMutability": "view",
      "type": "function"
    },
    {
      "inputs": [],
      "name": "name",
      "outputs": [
        {
          "internalType": "string",
          "name": "",
          "type": "string"
        }
      ],
      "stateMutability": "view",
      "type": "function"
    },
    {
      "inputs": [],
      "name": "symbol",
      "outputs": [
        {
          "internalType": "string",
          "name": "",
          "type": "string"
        }
      ],
      "stateMutability": "view",
      "type": "function"
    },
    {
      "inputs": [],
      "name": "totalSupply",
      "outputs": [
        {
          "internalType": "uint256",
          "name": "",
          "type": "uint256"
        }
      ],
      "stateMutability": "view",
      "type": "function"
    },
    {
      "inputs": [
        {
          "internalType": "address",
          "name": "owner",
          "type": "address"
        }
      ],
      "name": "balanceOf",
      "outputs": [
        {
          "internalType": "uint256",
          "name": "",
          "type": "uint256"
        }
      ],
      "stateMutability": "view",
      "type": "function"
    },
    {
      "inputs": [
        {
          "internalType": "address",
          "name": "to",
          "type": "address"
        },
        {
          "internalType": "uint256",
          "name": "value",
          "type": "uint256"
        }
      ],
      "name": "transfer",
      "outputs": [
        {
          "internalType": "bool",
          "name": "",
          "type": "bool"
        }
      ],
      "stateMutability": "nonpayable",
      "type": "function"
    },
    {
      "inputs": [
        {
          "internalType": "address",
          "name": "spender",
          "type": "address"
        },
        {
          "internalType": "uint256",
          "name": "value",
          "type": "uint256"
        }
      ],
      "name": "approve",
      "outputs": [],
      "stateMutability": "nonpayable",
      "type": "function"
    }
  ],
  "bytecode": "0x608060405269021e19e0c9bab24000006002556040518060400160405280601081526020017f53494e47554c4152495459544f4b454e000000000000000000000000000000008152506003908051906020019061005d929190610106565b506040518060400160405280600481526020017f53494e4700000000000000000000000000000000000000000000000000000000815250600490805190602001906100a9929190610106565b5060126005553480156100bb57600080fd5b506002546000803373ffffffffffffffffffffffffffffffffffffffff1673ffffffffffffffffffffffffffffffffffffffff1681526020019081526020016000208190555061020a565b828054610112906101d8565b90600052602060002090601f016020900481019282610134576000855561017b565b82601f1061014d57805160ff191683800117855561017b565b8280016001018555821561017b579182015b8281111561017a57825182559160200191906001019061015f565b5b509050610188919061018c565b5090565b5b808211156101a557600081600090555060010161018d565b5090565b7f4e487b7100000000000000000000000000000000000000000000000000000000600052602260045260246000fd5b600060028204905060018216806101f057607f821691505b60208210811415610204576102036101a9565b5b50919050565b6109a1806102196000396000f3fe608060405234801561001057600080fd5b50600436106100935760003560e01c8063313ce56711610066578063313ce5671461012057806370a082311461013e57806395d89b411461016e578063a9059cbb1461018c578063dd62ed3e146101bc57610093565b806306fdde0314610098578063095ea7b3146100b657806318160ddd146100d257806327e235e3146100f0575b600080fd5b6100a06101ec565b6040516100ad919061061d565b60405180910390f35b6100d060048036038101906100cb91906106d8565b61027a565b005b6100da6102ff565b6040516100e79190610727565b60405180910390f35b61010a60048036038101906101059190610742565b610305565b6040516101179190610727565b60405180910390f35b61012861031d565b6040516101359190610727565b60405180910390f35b61015860048036038101906101539190610742565b610323565b6040516101659190610727565b60405180910390f35b61017661036b565b604051610183919061061d565b60405180910390f35b6101a660048036038101906101a191906106d8565b6103f9565b6040516101b3919061078a565b60405180910390f35b6101d660048036038101906101d191906107a5565b61055f565b6040516101e39190610727565b60405180910390f35b600380546101f990610814565b80601f016020809104026020016040519081016040528092919081815260200182805461022590610814565b80156102725780601f1061024757610100808354040283529160200191610272565b820191906000526020600020905b81548152906001019060200180831161025557829003601f168201915b505050505081565b80600160003373ffffffffffffffffffffffffffffffffffffffff1673ffffffffffffffffffffffffffffffffffffffff16815260200190815260200160002060008473ffffffffffffffffffffffffffffffffffffffff1673ffffffffffffffffffffffffffffffffffffffff168152602001908152602001600020819055505050565b60025481565b60006020528060005260406000206000915090505481565b60055481565b60008060008373ffffffffffffffffffffffffffffffffffffffff1673ffffffffffffffffffffffffffffffffffffffff168152602001908152602001600020549050919050565b6004805461037890610814565b80601f01602080910402602001604051908101604052809291908181526020018280546103a490610814565b80156103f15780601f106103c6576101008083540402835291602001916103f1565b820191906000526020600020905b8154815290600101906020018083116103d457829003601f168201915b505050505081565b60008161040533610323565b1015610446576040517f08c379a000000000000000000000000000000000000000000000000000000000815260040161043d90610892565b60405180910390fd5b816000808573ffffffffffffffffffffffffffffffffffffffff1673ffffffffffffffffffffffffffffffffffffffff168152602001908152602001600020600082825461049491906108e1565b92505081905550816000803373ffffffffffffffffffffffffffffffffffffffff1673ffffffffffffffffffffffffffffffffffffffff16815260200190815260200160002060008282546104e99190610937565b925050819055508273ffffffffffffffffffffffffffffffffffffffff163373ffffffffffffffffffffffffffffffffffffffff167fddf252ad1be2c89b69c2b068fc378daa952ba7f163c4a11628f55a4df523b3ef8460405161054d9190610727565b60405180910390a36001905092915050565b6001602052816000526040600020602052806000526040600020600091509150505481565b600081519050919050565b600082825260208201905092915050565b60005b838110156105be5780820151818401526020810190506105a3565b838111156105cd576000848401525b50505050565b6000601f19601f8301169050919050565b60006105ef82610584565b6105f9818561058f565b93506106098185602086016105a0565b610612816105d3565b840191505092915050565b6000602082019050818103600083015261063781846105e4565b905092915050565b600080fd5b600073ffffffffffffffffffffffffffffffffffffffff82169050919050565b600061066f82610644565b9050919050565b61067f81610664565b811461068a57600080fd5b50565b60008135905061069c81610676565b92915050565b6000819050919050565b6106b5816106a2565b81146106c057600080fd5b50565b6000813590506106d2816106ac565b92915050565b600080604083850312156106ef576106ee61063f565b5b60006106fd8582860161068d565b925050602061070e858286016106c3565b9150509250929050565b610721816106a2565b82525050565b600060208201905061073c6000830184610718565b92915050565b6000602082840312156107585761075761063f565b5b60006107668482850161068d565b91505092915050565b60008115159050919050565b6107848161076f565b82525050565b600060208201905061079f600083018461077b565b92915050565b600080604083850312156107bc576107bb61063f565b5b60006107ca8582860161068d565b92505060206107db8582860161068d565b9150509250929050565b7f4e487b7100000000000000000000000000000000000000000000000000000000600052602260045260246000fd5b6000600282049050600182168061082c57607f821691505b602082108114156108405761083f6107e5565b5b50919050565b7f53616c646f20496e737566696369656e74650000000000000000000000000000600082015250565b600061087c60128361058f565b915061088782610846565b602082019050919050565b600060208201905081810360008301526108ab8161086f565b9050919050565b7f4e487b7100000000000000000000000000000000000000000000000000000000600052601160045260246000fd5b60006108ec826106a2565b91506108f7836106a2565b9250827fffffffffffffffffffffffffffffffffffffffffffffffffffffffffffffffff0382111561092c5761092b6108b2565b5b828201905092915050565b6000610942826106a2565b915061094d836106a2565b9250828210156109605761095f6108b2565b5b82820390509291505056fea264697066735822122045a560f108d044cd5756ed91091cceab8298d2579453885c8019197707acc0c764736f6c634300080a0033",
  "immutableReferences": {},
  "source": "// SPDX-License-Identifier: GPL-3.0\n\npragma solidity ^0.8.2;\n\ncontract Token\n{\n    mapping(address => uint) public balances;\n    mapping(address => mapping(address => uint)) public allowance;\n\n    uint public totalSupply = 10000 * 10 ** 18;\n    string public name = \"SINGULARITYTOKEN\";\n    string public symbol = \"SING\";\n    uint public decimals = 18;\n\n    event Transfer(address indexed from, address indexed to, uint value);\n    event Approval(address indexed owner, address indexed spender, uint value);\n    constructor(){    \n        balances[msg.sender] = totalSupply;\n    }\n\n    function balanceOf(address owner) public view returns(uint) {\n        return balances[owner];\n    }\n\n    function transfer(address to, uint value) public returns(bool){\n\n        require(balanceOf(msg.sender) >= value, 'Saldo Insuficiente');\n        balances[to] += value;\n        balances[msg.sender] -= value;\n        emit Transfer(msg.sender, to, value);\n        return true;\n    }\n\n    function approve(address spender, uint value) public {\n        allowance[msg.sender][spender] = value;\n\n    }\n}",
  "sourcePath": "/var/www/html/sing/bsc-token/contracts/SingularityToken.sol",
  "compiler": {
    "name": "solc",
    "version": "0.8.10+commit.fc410830.Emscripten.clang"
  },
  "schemaVersion": "3.4.3",
  "updatedAt": "2021-12-09T22:01:24.387Z",
  "devdoc": {
    "kind": "dev",
    "methods": {},
    "version": 1
  },
  "userdoc": {
    "kind": "user",
    "methods": {},
    "version": 1
  }
}